{
  "abi": [
    {
      "inputs": [],
      "stateMutability": "nonpayable",
      "type": "constructor"
    },
    {
      "inputs": [],
      "name": "STAKE_PRICE",
      "outputs": [
        {
          "internalType": "uint256",
          "name": "",
          "type": "uint256"
        }
      ],
      "stateMutability": "view",
      "type": "function"
    },
    {
      "inputs": [
        {
          "internalType": "uint256",
          "name": "poolId",
          "type": "uint256"
        },
        {
          "internalType": "bytes32",
          "name": "_cipherTextHash",
          "type": "bytes32"
        },
        {
          "internalType": "string",
          "name": "_cipherTextCid",
          "type": "string"
        }
      ],
      "name": "commitCipher",
      "outputs": [],
      "stateMutability": "payable",
      "type": "function"
    },
    {
      "inputs": [
        {
          "internalType": "uint256",
          "name": "poolId",
          "type": "uint256"
        },
        {
          "internalType": "string",
          "name": "_operatorPublicKey",
          "type": "string"
        },
        {
          "internalType": "bytes32",
          "name": "_operatorPrivateKeyHash",
          "type": "bytes32"
        }
      ],
      "name": "commitOperator",
      "outputs": [],
      "stateMutability": "payable",
      "type": "function"
    },
    {
      "inputs": [
        {
          "internalType": "uint256",
          "name": "",
          "type": "uint256"
        }
      ],
      "name": "poolData",
      "outputs": [
        {
          "internalType": "string",
          "name": "operatorPublicKey",
          "type": "string"
        },
        {
          "internalType": "bytes32",
          "name": "operatorPrivateKeyHash",
          "type": "bytes32"
        },
        {
          "internalType": "bytes32",
          "name": "cipherTextHash",
          "type": "bytes32"
        },
        {
          "internalType": "string",
          "name": "cipherTextCid",
          "type": "string"
        }
      ],
      "stateMutability": "view",
      "type": "function"
    },
    {
      "inputs": [
        {
          "internalType": "uint256",
          "name": "poolId",
          "type": "uint256"
        },
        {
          "internalType": "bytes[]",
          "name": "cipherText",
          "type": "bytes[]"
        }
      ],
      "name": "revealCipher",
      "outputs": [],
      "stateMutability": "nonpayable",
      "type": "function"
    },
    {
      "inputs": [
        {
          "internalType": "uint256",
          "name": "poolId",
          "type": "uint256"
        },
        {
          "internalType": "string",
          "name": "privateKey",
          "type": "string"
        }
      ],
      "name": "revealOperator",
      "outputs": [],
      "stateMutability": "nonpayable",
      "type": "function"
    }
  ],
  "bytecode": {
    "object": "0x608060405234801561001057600080fd5b50610d3b806100206000396000f3fe6080604052600436106100545760003560e01c80629480ee146100595780632b7bafc31461006e5780635a594fcc1461008e5780637b407220146100bc578063d18a76b4146100dc578063ec002081146100ef575b600080fd5b61006c610067366004610765565b61011f565b005b34801561007a57600080fd5b5061006c6100893660046107b8565b6101a9565b34801561009a57600080fd5b506100a966f8b0a10e47000081565b6040519081526020015b60405180910390f35b3480156100c857600080fd5b5061006c6100d7366004610804565b6103a8565b61006c6100ea366004610883565b610570565b3480156100fb57600080fd5b5061010f61010a3660046108d6565b6105e4565b6040516100b3949392919061093f565b66f8b0a10e47000034146101755760405162461bcd60e51b81526020600482015260186024820152771a5b98dbdc9c9958dd08115512081d985b1d59481cd95b9d60421b60448201526064015b60405180910390fd5b600084815260208190526040902061018e838583610a1a565b50600093845260208490526040909320600101929092555050565b600083815260208190526040902080548491906101c590610991565b90506000036101e65760405162461bcd60e51b815260040161016c90610ada565b600081815260208190526040812060010154901a60f81b6001600160f81b0319166000036102265760405162461bcd60e51b815260040161016c90610b1f565b600081815260208190526040812060020154901a60f81b6001600160f81b0319166000036102665760405162461bcd60e51b815260040161016c90610b6a565b6000818152602081905260409020600301805461028290610991565b90506000036102a35760405162461bcd60e51b815260040161016c90610bad565b600283836040516020016102b8929190610c18565b60408051601f19818403018152908290526102d291610c34565b602060405180830381855afa1580156102ef573d6000803e3d6000fd5b5050506040513d601f19601f820116820180604052508101906103129190610c50565b600085815260208190526040902060010154146103715760405162461bcd60e51b815260206004820152601f60248201527f70726976617465206b6579206861736820646f6573206e6f74206d6174636800604482015260640161016c565b6040513390600090670de0b6b3a76400009082818181858883f193505050501580156103a1573d6000803e3d6000fd5b5050505050565b600083815260208190526040902080548491906103c490610991565b90506000036103e55760405162461bcd60e51b815260040161016c90610ada565b600081815260208190526040812060010154901a60f81b6001600160f81b0319166000036104255760405162461bcd60e51b815260040161016c90610b1f565b600081815260208190526040812060020154901a60f81b6001600160f81b0319166000036104655760405162461bcd60e51b815260040161016c90610b6a565b6000818152602081905260409020600301805461048190610991565b90506000036104a25760405162461bcd60e51b815260040161016c90610bad565b600283836040516020016104b7929190610c69565b60408051601f19818403018152908290526104d191610c34565b602060405180830381855afa1580156104ee573d6000803e3d6000fd5b5050506040513d601f19601f820116820180604052508101906105119190610c50565b600085815260208190526040902060020154146103715760405162461bcd60e51b815260206004820152601f60248201527f6369706865722074657874206861736820646f6573206e6f74206d6174636800604482015260640161016c565b66f8b0a10e47000034146105c15760405162461bcd60e51b81526020600482015260186024820152771a5b98dbdc9c9958dd08115512081d985b1d59481cd95b9d60421b604482015260640161016c565b6000848152602081905260409020600281018490556003016103a1828483610a1a565b6000602081905290815260409020805481906105ff90610991565b80601f016020809104026020016040519081016040528092919081815260200182805461062b90610991565b80156106785780601f1061064d57610100808354040283529160200191610678565b820191906000526020600020905b81548152906001019060200180831161065b57829003601f168201915b50505050509080600101549080600201549080600301805461069990610991565b80601f01602080910402602001604051908101604052809291908181526020018280546106c590610991565b80156107125780601f106106e757610100808354040283529160200191610712565b820191906000526020600020905b8154815290600101906020018083116106f557829003601f168201915b5050505050905084565b60008083601f84011261072e57600080fd5b50813567ffffffffffffffff81111561074657600080fd5b60208301915083602082850101111561075e57600080fd5b9250929050565b6000806000806060858703121561077b57600080fd5b84359350602085013567ffffffffffffffff81111561079957600080fd5b6107a58782880161071c565b9598909750949560400135949350505050565b6000806000604084860312156107cd57600080fd5b83359250602084013567ffffffffffffffff8111156107eb57600080fd5b6107f78682870161071c565b9497909650939450505050565b60008060006040848603121561081957600080fd5b83359250602084013567ffffffffffffffff8082111561083857600080fd5b818601915086601f83011261084c57600080fd5b81358181111561085b57600080fd5b8760208260051b850101111561087057600080fd5b6020830194508093505050509250925092565b6000806000806060858703121561089957600080fd5b8435935060208501359250604085013567ffffffffffffffff8111156108be57600080fd5b6108ca8782880161071c565b95989497509550505050565b6000602082840312156108e857600080fd5b5035919050565b60005b8381101561090a5781810151838201526020016108f2565b50506000910152565b6000815180845261092b8160208601602086016108ef565b601f01601f19169290920160200192915050565b6080815260006109526080830187610913565b85602084015284604084015282810360608401526109708185610913565b979650505050505050565b634e487b7160e01b600052604160045260246000fd5b600181811c908216806109a557607f821691505b6020821081036109c557634e487b7160e01b600052602260045260246000fd5b50919050565b601f821115610a1557600081815260208120601f850160051c810160208610156109f25750805b601f850160051c820191505b81811015610a11578281556001016109fe565b5050505b505050565b67ffffffffffffffff831115610a3257610a3261097b565b610a4683610a408354610991565b836109cb565b6000601f841160018114610a7a5760008515610a625750838201355b600019600387901b1c1916600186901b1783556103a1565b600083815260209020601f19861690835b82811015610aab5786850135825560209485019460019092019101610a8b565b5086821015610ac85760001960f88860031b161c19848701351681555b505060018560011b0183555050505050565b60208082526025908201527f6f70657261746f7220686173206e6f7420636f6d6d6974746564207075626c6960408201526463206b657960d81b606082015260800190565b6020808252602b908201527f6f70657261746f7220686173206e6f7420636f6d6d697474656420707269766160408201526a0e8ca40d6caf240d0c2e6d60ab1b606082015260800190565b60208082526023908201527f73657276657220686173206e6f7420636f6d6d697465642063697068657220686040820152620c2e6d60eb1b606082015260800190565b60208082526022908201527f73657276657220686173206e6f7420636f6d6d697465642063697068657220636040820152611a5960f21b606082015260800190565b81835281816020850137506000828201602090810191909152601f909101601f19169091010190565b602081526000610c2c602083018486610bef565b949350505050565b60008251610c468184602087016108ef565b9190910192915050565b600060208284031215610c6257600080fd5b5051919050565b60208082528181018390526000906040600585901b8401810190840186845b87811015610cf857868403603f190183528135368a9003601e19018112610cae57600080fd5b8901858101903567ffffffffffffffff811115610cca57600080fd5b803603821315610cd957600080fd5b610ce4868284610bef565b955050509184019190840190600101610c88565b509197965050505050505056fea264697066735822122084a75b793e97d94d12b5e840bab237667ec30fcac0a6983a8196ad0a476d0f6864736f6c63430008100033",
    "linkReferences": {}
  },
  "methodIdentifiers": {
    "STAKE_PRICE()": "5a594fcc",
    "commitCipher(uint256,bytes32,string)": "d18a76b4",
    "commitOperator(uint256,string,bytes32)": "009480ee",
    "poolData(uint256)": "ec002081",
    "revealCipher(uint256,bytes[])": "7b407220",
    "revealOperator(uint256,string)": "2b7bafc3"
  },
  "id": 6
}