{
  "abi": [
    {
      "inputs": [],
      "stateMutability": "nonpayable",
      "type": "constructor"
    },
    {
      "inputs": [],
      "name": "STAKE_PRICE",
      "outputs": [
        {
          "internalType": "uint256",
          "name": "",
          "type": "uint256"
        }
      ],
      "stateMutability": "view",
      "type": "function"
    },
    {
      "inputs": [
        {
          "internalType": "uint256",
          "name": "poolId",
          "type": "uint256"
        },
        {
          "internalType": "bytes32",
          "name": "_cipherTextHash",
          "type": "bytes32"
        },
        {
          "internalType": "string",
          "name": "_cipherTextCid",
          "type": "string"
        }
      ],
      "name": "commitCipher",
      "outputs": [],
      "stateMutability": "payable",
      "type": "function"
    },
    {
      "inputs": [
        {
          "internalType": "uint256",
          "name": "poolId",
          "type": "uint256"
        },
        {
          "internalType": "string",
          "name": "_operatorPublicKey",
          "type": "string"
        },
        {
          "internalType": "bytes32",
          "name": "_operatorPrivateKeyHash",
          "type": "bytes32"
        }
      ],
      "name": "commitOperator",
      "outputs": [],
      "stateMutability": "payable",
      "type": "function"
    },
    {
      "inputs": [
        {
          "internalType": "uint256",
          "name": "",
          "type": "uint256"
        }
      ],
      "name": "poolData",
      "outputs": [
        {
          "internalType": "string",
          "name": "operatorPublicKey",
          "type": "string"
        },
        {
          "internalType": "string",
          "name": "cipherTextCid",
          "type": "string"
        },
        {
          "internalType": "bytes32",
          "name": "operatorPrivateKeyHash",
          "type": "bytes32"
        },
        {
          "internalType": "bytes32",
          "name": "cipherTextHash",
          "type": "bytes32"
        }
      ],
      "stateMutability": "view",
      "type": "function"
    },
    {
      "inputs": [
        {
          "internalType": "uint256",
          "name": "poolId",
          "type": "uint256"
        },
        {
          "internalType": "bytes[]",
          "name": "cipherText",
          "type": "bytes[]"
        }
      ],
      "name": "revealCipher",
      "outputs": [],
      "stateMutability": "nonpayable",
      "type": "function"
    },
    {
      "inputs": [
        {
          "internalType": "uint256",
          "name": "poolId",
          "type": "uint256"
        },
        {
          "internalType": "string",
          "name": "privateKey",
          "type": "string"
        }
      ],
      "name": "revealOperator",
      "outputs": [],
      "stateMutability": "nonpayable",
      "type": "function"
    }
  ],
  "bytecode": {
    "object": "0x6080604052600160005534801561001557600080fd5b50610dce806100256000396000f3fe6080604052600436106100545760003560e01c80629480ee146100595780632b7bafc31461006e5780635a594fcc1461008e5780637b407220146100bc578063d18a76b4146100dc578063ec002081146100ef575b600080fd5b61006c6100673660046107fb565b61011f565b005b34801561007a57600080fd5b5061006c61008936600461084e565b6101a9565b34801561009a57600080fd5b506100a966f8b0a10e47000081565b6040519081526020015b60405180910390f35b3480156100c857600080fd5b5061006c6100d736600461089a565b6103f1565b61006c6100ea366004610919565b6105fe565b3480156100fb57600080fd5b5061010f61010a36600461096c565b61067a565b6040516100b394939291906109d5565b66f8b0a10e47000034146101755760405162461bcd60e51b81526020600482015260186024820152771a5b98dbdc9c9958dd08115512081d985b1d59481cd95b9d60421b60448201526064015b60405180910390fd5b600084815260016020526040902061018e838583610aad565b50600093845260016020526040909320600201929092555050565b6000546001146101e85760405162461bcd60e51b815260206004820152600a6024820152695245454e5452414e435960b01b604482015260640161016c565b60026000908155838152600160205260409020805484919061020990610a24565b905060000361022a5760405162461bcd60e51b815260040161016c90610b6d565b600081815260016020526040812060020154901a60f81b6001600160f81b03191660000361026a5760405162461bcd60e51b815260040161016c90610bb2565b600081815260016020526040812060030154901a60f81b6001600160f81b0319166000036102aa5760405162461bcd60e51b815260040161016c90610bfd565b60008181526001602081905260409091200180546102c790610a24565b90506000036102e85760405162461bcd60e51b815260040161016c90610c40565b600283836040516020016102fd929190610cab565b60408051601f198184030181529082905261031791610cc7565b602060405180830381855afa158015610334573d6000803e3d6000fd5b5050506040513d601f19601f820116820180604052508101906103579190610ce3565b600085815260016020526040902060020154146103b65760405162461bcd60e51b815260206004820152601f60248201527f70726976617465206b6579206861736820646f6573206e6f74206d6174636800604482015260640161016c565b604051339060009066f8b0a10e4700009082818181858883f193505050501580156103e5573d6000803e3d6000fd5b50506001600055505050565b6000546001146104305760405162461bcd60e51b815260206004820152600a6024820152695245454e5452414e435960b01b604482015260640161016c565b60026000908155838152600160205260409020805484919061045190610a24565b90506000036104725760405162461bcd60e51b815260040161016c90610b6d565b600081815260016020526040812060020154901a60f81b6001600160f81b0319166000036104b25760405162461bcd60e51b815260040161016c90610bb2565b600081815260016020526040812060030154901a60f81b6001600160f81b0319166000036104f25760405162461bcd60e51b815260040161016c90610bfd565b600081815260016020819052604090912001805461050f90610a24565b90506000036105305760405162461bcd60e51b815260040161016c90610c40565b60028383604051602001610545929190610cfc565b60408051601f198184030181529082905261055f91610cc7565b602060405180830381855afa15801561057c573d6000803e3d6000fd5b5050506040513d601f19601f8201168201806040525081019061059f9190610ce3565b600085815260016020526040902060030154146103b65760405162461bcd60e51b815260206004820152601f60248201527f6369706865722074657874206861736820646f6573206e6f74206d6174636800604482015260640161016c565b66f8b0a10e470000341461064f5760405162461bcd60e51b81526020600482015260186024820152771a5b98dbdc9c9958dd08115512081d985b1d59481cd95b9d60421b604482015260640161016c565b60008481526001602081905260409091206003810185905501610673828483610aad565b5050505050565b60016020526000908152604090208054819061069590610a24565b80601f01602080910402602001604051908101604052809291908181526020018280546106c190610a24565b801561070e5780601f106106e35761010080835404028352916020019161070e565b820191906000526020600020905b8154815290600101906020018083116106f157829003601f168201915b50505050509080600101805461072390610a24565b80601f016020809104026020016040519081016040528092919081815260200182805461074f90610a24565b801561079c5780601f106107715761010080835404028352916020019161079c565b820191906000526020600020905b81548152906001019060200180831161077f57829003601f168201915b5050505050908060020154908060030154905084565b60008083601f8401126107c457600080fd5b50813567ffffffffffffffff8111156107dc57600080fd5b6020830191508360208285010111156107f457600080fd5b9250929050565b6000806000806060858703121561081157600080fd5b84359350602085013567ffffffffffffffff81111561082f57600080fd5b61083b878288016107b2565b9598909750949560400135949350505050565b60008060006040848603121561086357600080fd5b83359250602084013567ffffffffffffffff81111561088157600080fd5b61088d868287016107b2565b9497909650939450505050565b6000806000604084860312156108af57600080fd5b83359250602084013567ffffffffffffffff808211156108ce57600080fd5b818601915086601f8301126108e257600080fd5b8135818111156108f157600080fd5b8760208260051b850101111561090657600080fd5b6020830194508093505050509250925092565b6000806000806060858703121561092f57600080fd5b8435935060208501359250604085013567ffffffffffffffff81111561095457600080fd5b610960878288016107b2565b95989497509550505050565b60006020828403121561097e57600080fd5b5035919050565b60005b838110156109a0578181015183820152602001610988565b50506000910152565b600081518084526109c1816020860160208601610985565b601f01601f19169290920160200192915050565b6080815260006109e860808301876109a9565b82810360208401526109fa81876109a9565b604084019590955250506060015292915050565b634e487b7160e01b600052604160045260246000fd5b600181811c90821680610a3857607f821691505b602082108103610a5857634e487b7160e01b600052602260045260246000fd5b50919050565b601f821115610aa857600081815260208120601f850160051c81016020861015610a855750805b601f850160051c820191505b81811015610aa457828155600101610a91565b5050505b505050565b67ffffffffffffffff831115610ac557610ac5610a0e565b610ad983610ad38354610a24565b83610a5e565b6000601f841160018114610b0d5760008515610af55750838201355b600019600387901b1c1916600186901b178355610673565b600083815260209020601f19861690835b82811015610b3e5786850135825560209485019460019092019101610b1e565b5086821015610b5b5760001960f88860031b161c19848701351681555b505060018560011b0183555050505050565b60208082526025908201527f6f70657261746f7220686173206e6f7420636f6d6d6974746564207075626c6960408201526463206b657960d81b606082015260800190565b6020808252602b908201527f6f70657261746f7220686173206e6f7420636f6d6d697474656420707269766160408201526a0e8ca40d6caf240d0c2e6d60ab1b606082015260800190565b60208082526023908201527f73657276657220686173206e6f7420636f6d6d697465642063697068657220686040820152620c2e6d60eb1b606082015260800190565b60208082526022908201527f73657276657220686173206e6f7420636f6d6d697465642063697068657220636040820152611a5960f21b606082015260800190565b81835281816020850137506000828201602090810191909152601f909101601f19169091010190565b602081526000610cbf602083018486610c82565b949350505050565b60008251610cd9818460208701610985565b9190910192915050565b600060208284031215610cf557600080fd5b5051919050565b60208082528181018390526000906040600585901b8401810190840186845b87811015610d8b57868403603f190183528135368a9003601e19018112610d4157600080fd5b8901858101903567ffffffffffffffff811115610d5d57600080fd5b803603821315610d6c57600080fd5b610d77868284610c82565b955050509184019190840190600101610d1b565b509197965050505050505056fea26469706673582212209c2a48a467e7d8b1821cb8f29df44ba33a0ddf274252773eb24bf7393817acda64736f6c63430008100033",
    "linkReferences": {}
  },
  "methodIdentifiers": {
    "STAKE_PRICE()": "5a594fcc",
    "commitCipher(uint256,bytes32,string)": "d18a76b4",
    "commitOperator(uint256,string,bytes32)": "009480ee",
    "poolData(uint256)": "ec002081",
    "revealCipher(uint256,bytes[])": "7b407220",
    "revealOperator(uint256,string)": "2b7bafc3"
  },
  "id": 7
}